{
  "address": "0xb370349C20Ac536631E6bC694D5029ce9B3cA0fd",
  "abi": [
    {
      "inputs": [],
      "name": "MY_VARIABLE",
      "outputs": [
        {
          "internalType": "uint256",
          "name": "",
          "type": "uint256"
        }
      ],
      "stateMutability": "view",
      "type": "function"
    }
  ],
  "transactionHash": "0x1f4c8c0463ae19968d9cd1e2a9aaef7c205e22b0fdc0019cc3792a31523fc4fd",
  "args": [],
  "numDeployments": 1,
  "solcInputHash": "70aa2eed377ef46fac4320d961081c3e",
  "bytecode": "0x6080604052348015600f57600080fd5b50607c8061001e6000396000f3fe6080604052348015600f57600080fd5b506004361060285760003560e01c80638383f88414602d575b600080fd5b6034607b81565b60405190815260200160405180910390f3fea26469706673582212207532a82dfed6b88a2aa1201c3dcd3d045a220c5a9195c907aa3c6a0b1778daad64736f6c63430008110033",
  "devdoc": {
    "kind": "dev",
    "methods": {},
    "version": 1
  },
  "userdoc": {
    "kind": "user",
    "methods": {},
    "version": 1
  },
  "storageLayout": {
    "storage": [],
    "types": null
  }
}